:100000000C94C8000C94E9000C94E9000C94E900ED
:100010000C94E9000C94E9000C94E9000C94E900BC
:100020000C94E9000C94E9000C94E9000C94E900AC
:100030000C94E9000C94E9000C94E9000C94E9009C
:100040000C94E9000C94E9000C94E9000C94E9008C
:100050000C94E9000C94E9000C94E9000C94E9007C
:100060000C94E9000C9475020C94C2020C94E90003
:100070000C94E9000C94E9000C94E9000C94E9005C
:100080000C94E9000C94E9000C94E9000C94E9004C
:100090000C9414040C9461040C94E9000C94E90091
:1000A0000C94E9000C94E9000C94E9000C94E9002C
:1000B0000C94E9000C94E9000C94E9000C94E9001C
:1000C0000C94E9000C94E9000C94E9000C94E9000C
:1000D0000C94E9000C94E9000C94E9000C94E900FC
:1000E0000C94E90020696E737472756374696F6EA5
:1000F00020746F6F206C6F6E67202D3E20636C65DF
:10010000617265640A0020696E7374727563746944
:100110006F6E20746F6F2073686F7274202D3E2095
:10012000636C65617265640A00756E737570706FDB
:100130007274656420696E737472756374696F6E2E
:100140003A2000202D3E20636C6561726564005585
:10015000415254204672616D65204572726F723A49
:10016000200055415254204F76657272756E2045BD
:1001700072726F723A2000427566666572206F7601
:100180006572666C6F77206572726F723A2000003C
:1001900011241FBECFEFD1E2DEBFCDBF00E00CBF08
:1001A00012E0A0E0B2E0E8EDFFE000E00BBF02C02B
:1001B00007900D92A432B107D9F712E0A4E2B2E0A1
:1001C00001C01D92A23DB107E1F70E94AB050C945E
:1001D000EA070C940000CF93DF93CDB7DEB76797A3
:1001E0000FB6F894DEBF0FBECDBF8F8B8091240277
:1001F000882F90E08A5D9D4F2F89FC01208380919C
:1002000024028F5F809324028F89883019F08F89B0
:100210008F37F1F4809124028150809324028091E1
:100220002402882F90E08A5D9D4FFC01108280910E
:100230002402882369F08091240281508093240253
:1002400080912402882F90E08A5D9D4FFC011082EE
:1002500080912402803270F01092240284EE90E0AB
:100260000E94C50320E286E292E0FC01322F119247
:100270003A95E9F78F898D3091F48091240283308B
:1002800070F41092240286E091E00E94C50320E2FF
:1002900086E292E0FC01322F11923A95E9F78F89BC
:1002A0008D3009F0BBC080912402833008F4B6C0C1
:1002B0001E821D821A8219821B821C828091260254
:1002C000882F90E08736910509F455C08337910552
:1002D00009F089C087E292E09E012B5F3F4FB90190
:1002E00040E150E00E942E06DC01CB019A83898315
:1002F0008D819E8101969E838D838D819E8160E09C
:1003000070E040E150E00E942E06DC01CB018B83BF
:1003100089819A816B810E941B028C838C81882346
:1003200009F46EC0CE01079620E1FC01322F119234
:100330003A95E9F7CE01079620E032E047E0F9016F
:1003400000802F5F3F4FFC01008201964150442303
:10035000B1F78C81882F90E09E01295F3F4F295F84
:100360003F4FB90140E150E00E947507CE0107966A
:100370000E94A50345C0CE01079620E1FC01322F63
:1003800011923A95E9F7CE01079628E032E043E072
:10039000F90100802F5F3F4FFC0100820196415020
:1003A0004423B1F787E292E060E070E040E150E082
:1003B0000E942E06DC01CB019A83898389819A8170
:1003C0000E944E02882F90E09E01295F3F4F2D5FD3
:1003D0003F4FB90140E150E00E947507CE010796FA
:1003E0000E94A5030EC089E291E00E94C50386E247
:1003F00092E00E94A50383E491E00E94C50301C03E
:1004000000001092240220E286E292E0FC01322FEA
:1004100011923A95E9F78AE00E947A038F890E9447
:100420007A0380E067960FB6F894DEBF0FBECDBFAB
:10043000DF91CF910895CF93DF93CDB7DEB72897A3
:100440000FB6F894DEBF0FBECDBF9F838E83688743
:100450001A8219821C821B828E819F819A838983D2
:1004600089819A819C838B838B819C812885FC0167
:1004700020838E819F810E944E028D8398858D817D
:10048000981711F08D8101C080E028960FB6F8947E
:10049000DEBF0FBECDBFDF91CF910895CF93DF9325
:1004A000CDB7DEB727970FB6F894DEBF0FBECDBF2E
:1004B0009F838E831A8219821C821B828E819F8168
:1004C0009A83898389819A819C838B838B819C8188
:1004D000FC0180818D838D8127960FB6F894DEBF55
:1004E0000FBECDBFDF91CF9108951F920F920FB62F
:1004F0000F9200905B000F9211242F938F939F9384
:10050000EF93FF93CF93DF9300D00F92CDB7DEB779
:1005100080EC90E0FC0180818A8386EC90E0FC0115
:1005200080818B838A8188718983809188028F5F23
:100530008F718C83809189029C81981719F482E0D5
:1005400089830BC08C81809388028C81882F90E0F6
:100550008A599D4F2B81FC012083898180938A02D7
:100560002496DEBFCDBFDF91CF91FF91EF919F9198
:100570008F912F910F9000925B000F900FBE0F9004
:100580001F9018951F920F920FB60F9200905B006C
:100590000F9211242F933F938F939F93EF93FF9389
:1005A000CF93DF930F92CDB7DEB790918602809103
:1005B00087029817A1F0809187028F5F8F718983DE
:1005C00089818093870286EC90E02981222F30E098
:1005D0002A5B3D4FF9012081FC01208309C081EC99
:1005E00090E021EC30E0F90120812F7DFC01208397
:1005F0000F90DF91CF91FF91EF919F918F913F915C
:100600002F910F9000925B000F900FBE0F901F90E4
:100610001895CF93DF9300D0CDB7DEB79B838A8345
:10062000109286021092870210928802109289021C
:100630008A819B81992354F480EC90E022E0FC01B4
:1006400020838A819B819F779B838A8385EC90E0BE
:100650002A813B81232F3327FC01208384EC90E007
:100660002A81FC01208381EC90E028E9FC012083B1
:1006700082EC90E026E0FC012083198203C089818E
:100680008F5F898389818436D0F30F900F900F900C
:10069000DF91CF910895CF93DF930F920F92CDB753
:1006A000DEB79091880280918902981719F480E052
:1006B00091E01BC0809189028F5F8F71898389814E
:1006C000809389028981882F90E08A599D4FFC018F
:1006D00080818A8380918A02882F90E0382F222798
:1006E0008A81882F90E0820F931F0F900F90DF91E7
:1006F000CF910895CF93DF930F920F92CDB7DEB7CE
:100700008A83809186028F5F8F7189830000809138
:10071000870299819817D9F38981882F90E08A5BA5
:100720009D4F2A81FC01208389818093860281EC80
:1007300090E021EC30E0F90120812062FC0120836F
:100740000F900F90DF91CF910895CF93DF930F9289
:100750000F92CDB7DEB79A8389830CC089819A81C5
:10076000FC01208189819A8101969A838983822F55
:100770000E947A0389819A81FC018081882371F724
:100780000F900F90DF91CF9108951F93CF93DF9338
:1007900000D00F920F92CDB7DEB79D838C8303C03C
:1007A000812F0E947A038C819D819A8389838C8119
:1007B0009D8101969D838C8389819A81FC0114918E
:1007C0001B838B81182F112359F70F900F900F90D7
:1007D0000F900F90DF91CF911F910895CF93DF93EA
:1007E000CDB7DEB780918802882F90E09C01215E12
:1007F0003F4F80918902882F90E0A901481B590B37
:10080000CA012FE130E0B9010E940706DF91CF91C4
:100810000895CF93DF93CDB7DEB78091890280939F
:100820008802DF91CF9108951F920F920FB60F9219
:1008300000905B000F9211242F938F939F93EF935F
:10084000FF93CF93DF9300D00F92CDB7DEB788EC44
:1008500090E0FC0180818A838EEC90E0FC01808135
:100860008B838A81887189838091CD028F5F8F719C
:100870008C838091CE029C81981719F482E0898341
:100880000BC08C818093CD028C81882F90E08555A0
:100890009D4F2B81FC01208389818093CF02249678
:1008A000DEBFCDBFDF91CF91FF91EF919F918F91EF
:1008B0002F910F9000925B000F900FBE0F901F9032
:1008C00018951F920F920FB60F9200905B000F9237
:1008D00011242F933F938F939F93EF93FF93CF9385
:1008E000DF930F92CDB7DEB79091CB028091CC020F
:1008F0009817A1F08091CC028F5F8F7189838981D5
:100900008093CC028EEC90E02981222F30E0255795
:100910003D4FF9012081FC01208309C089EC90E062
:1009200029EC30E0F90120812F7DFC0120830F901C
:10093000DF91CF91FF91EF919F918F913F912F91F7
:100940000F9000925B000F900FBE0F901F901895B4
:10095000CF93DF930F920F92CDB7DEB79A8389833F
:100960001092CB021092CC021092CD021092CE02C5
:1009700089819A81992354F488EC90E022E0FC016B
:10098000208389819A819F779A8389838DEC90E077
:1009900029813A81232F3327FC0120838CEC90E0BE
:1009A0002981FC01208389EC90E028E9FC01208367
:1009B0008AEC90E026E0FC0120830F900F90DF91FD
:1009C000CF910895CF93DF930F920F92CDB7DEB7FB
:1009D0009091CD028091CE02981719F480E091E0B9
:1009E0001BC08091CE028F5F8F7189838981809334
:1009F000CE028981882F90E085559D4FFC01808132
:100A00008A838091CF02882F90E0382F22278A8115
:100A1000882F90E0820F931F0F900F90DF91CF915E
:100A20000895CF93DF930F920F92CDB7DEB78A83ED
:100A30008091CB028F5F8F71898300008091CC02FF
:100A400099819817D9F38981882F90E085579D4F18
:100A50002A81FC01208389818093CB0289EC90E07C
:100A600029EC30E0F90120812062FC0120830F9005
:100A70000F90DF91CF910895CF93DF930F920F9254
:100A8000CDB7DEB79A8389830CC089819A81FC0136
:100A9000208189819A8101969A838983822F0E947D
:100AA000110589819A81FC018081882371F70F905B
:100AB0000F90DF91CF9108951F93CF93DF9300D0D4
:100AC0000F920F92CDB7DEB79D838C8303C0812F29
:100AD0000E9411058C819D819A8389838C819D81DF
:100AE00001969D838C8389819A81FC0114911B83DB
:100AF0008B81182F112359F70F900F900F900F90A3
:100B00000F90DF91CF911F910895CF93DF93CDB7D1
:100B1000DEB78091CD02882F90E09C01215E3F4F8F
:100B20008091CE02882F90E0A901481B590BCA0181
:100B30002FE130E0B9010E940706DF91CF910895BF
:100B4000CF93DF93CDB7DEB78091CE028093CD02F5
:100B5000DF91CF910895CF93DF93CDB7DEB7639741
:100B60000FB6F894DEBF0FBECDBF86E890E09A8343
:100B7000898328E0CE010C96FC01322F11923A9520
:100B8000E9F784E290E02FEFFC01208385E290E01A
:100B90002EEFFC01208383E390E00E940903789408
:100BA0008CE092E00E94A5038DE00E947A0301C0D0
:100BB00000000E944B039C838B838B819C818070FF
:100BC00091700097A9F78B819C8180709870009735
:100BD00021F08FE491E00E94C5038B819C8180709D
:100BE0009470009721F082E691E00E94C5038B810A
:100BF0009C8180709270009721F087E791E00E94BD
:100C0000C5038B81882F90E00E94EB00D1CF97FB2A
:100C1000092E07260AD077FD04D00CD006D000207C
:100C20001AF4709561957F4F0895F6F79095819528
:100C30009F4F0895AA1BBB1B51E107C0AA1FBB1FF2
:100C4000A617B70710F0A61BB70B881F991F5A9558
:100C5000A9F780959095BC01CD0108953F924F92E0
:100C60005F926F927F928F929F92AF92BF92CF923C
:100C7000DF92EF92FF920F931F93CF93DF9300D0F9
:100C80000F92CDB7DEB72B017A016115710529F0FE
:100C9000DB018C9311969C931197E114F10439F0C8
:100CA0009701225030402332310508F0FBC06C011F
:100CB00086010894C11CD11CF80130803601832DB7
:100CC00090E00E946D07009799F7FDE23F1661F4EE
:100CD000D80111963C90119792E0692E712C600E0C
:100CE000711ECC24C3940BC0BBE23B1639F4F8014F
:100CF000318082E0682E712C600E711ECC24E114CC
:100D0000F10421F0F0E1EF16F104F9F480E3381674
:100D100091F4D3018C91883711F0883561F4F30197
:100D2000318082E090E0680E791E92E0C92AB0E13D
:100D3000EB2EF12C0AC0E114F10439F4A0E33A16C9
:100D4000D1F0AAE0EA2EF12C30C0BAE0EB16F104A3
:100D500061F1E0E1EE16F10429F0F8E0EF16F1049C
:100D6000B1F409C0FFEF8F2EFFEF9F2EFFEFAF2EE4
:100D7000FFE0BF2E22C078E0E72EF12CEFEF8E2EA1
:100D8000EFEF9E2EEFEFAE2EEFE1BE2E16C09701D5
:100D9000442737FD4095542F6FEF7FEF8FEF9FEF84
:100DA0000E94C80749015A0108C069E9862E69E90D
:100DB000962E69E9A62E69E1B62E40E000E010E02B
:100DC0009801C701AA2797FDA095BA2F89839A8316
:100DD000AB83BC8350EDD52ED30C99E09D1570F4F8
:100DE000832D81548A3118F499ECD92E06C0832DB5
:100DF00081568A3168F589EAD82ED30C8D2D90E082
:100E00008E159F052CF54F3FF9F080169106A2062E
:100E1000B306B8F0C901B80129813A814B815C81E0
:100E20000E94A9078B019C018D2D90E0A0E0B0E00D
:100E3000080F191F2A1F3B1F081719072A073B070E
:100E400010F44FEF01C041E0D3013D903D01C2CF0E
:100E50004114510489F0442339F008946108710861
:100E6000F2017182608208C0C1FE06C0C301029710
:100E7000D20111969C938E93C0FE07C030952095A9
:100E8000109501951F4F2F4F3F4F47FF0EC082E235
:100E900090E09093D1028093D0020FEF1FEF2FEFDD
:100EA0003FEF03C000E010E09801B801C9010F90C6
:100EB0000F900F900F90DF91CF911F910F91FF90A6
:100EC000EF90DF90CF90BF90AF909F908F907F90EA
:100ED0006F905F904F903F900895911127C080329E
:100EE00019F089508550D0F70895FB019F01E894CF
:100EF0004230C4F04532B4F44A3029F497FB1EF472
:100F0000909581959F4F642F77270E941A06805DE8
:100F10008A330CF0895D8193CB010097A1F716F419
:100F20005DE251931082C9010C9499079927882793
:100F30000895DC01FC01672F71917723E1F7329767
:100F400004C07C916D9370836291AE17BF07C8F3A4
:100F50000895629FD001739FF001829FE00DF11D03
:100F6000649FE00DF11D929FF00D839FF00D749F23
:100F7000F00D659FF00D9927729FB00DE11DF91FCF
:100F8000639FB00DE11DF91FBD01CF01112408952C
:100F9000A1E21A2EAA1BBB1BFD010DC0AA1FBB1F7D
:100FA000EE1FFF1FA217B307E407F50720F0A21BEF
:100FB000B30BE40BF50B661F771F881F991F1A945C
:100FC00069F760957095809590959B01AC01BD0186
:080FD000CF010895F894FFCF52
:100FD800202D2D3E203078002030780041746D653A
:100FE80067613235363020696E697469616C697A77
:040FF80065640A0022
:00000001FF
