:100000000C9480000C949D000C949D000C949D0019
:100010000C949D000C949D000C949D000C949D00EC
:100020000C949D000C949D000C949D000C9429024E
:100030000C9470020C949D000C949D000C949D00F7
:100040000C949D000C949D000C949D000C949D00BC
:100050000C949D0020696E737472756374696F6E81
:1000600020746F6F206C6F6E67202D3E20636C656F
:10007000617265640A0020696E73747275637469D5
:100080006F6E20746F6F2073686F7274202D3E2026
:10009000636C65617265640A00756E737570706F6C
:1000A0007274656420696E737472756374696F6EBF
:1000B0003A2000202D3E20636C6561726564005516
:1000C000415254204672616D65204572726F723ADA
:1000D000200055415254204F76657272756E20454E
:1000E00072726F723A2000427566666572206F7692
:1000F0006572666C6F77206572726F723A200000CD
:1001000011241FBECFE5D4E0DEBFCDBF10E0A0E6D6
:10011000B0E0E4E2FCE002C005900D92A438B10723
:10012000D9F710E0A4E8B0E001C01D92AD3EB107E0
:10013000E1F70E94BA030C9410060C940000CF93D0
:10014000DF93CDB7DEB767970FB6F894DEBF0FBE6B
:10015000CDBF8F8B80918400882F90E08A579F4F6E
:100160002F89FC012083809184008F5F809384001D
:100170008F89883019F08F898F37F1F4809184004E
:1001800081508093840080918400882F90E08A576A
:100190009F4FFC01108280918400882369F0809138
:1001A000840081508093840080918400882F90E0A7
:1001B0008A579F4FFC01108280918400803270F03A
:1001C0001092840084E590E00E946B0320E286E8B0
:1001D00090E0FC01322F11923A95E9F78F898D302A
:1001E00091F480918400833070F41092840086E74B
:1001F00090E00E946B0320E286E890E0FC01322F41
:1002000011923A95E9F78F898D3009F0BBC0809142
:100210008400833008F4B6C01E821D821A821982BF
:100220001B821C8280918600882F90E08736910582
:1002300009F455C08337910509F089C087E890E03B
:100240009E012B5F3F4FB90140E150E00E943E0408
:10025000DC01CB019A8389838D819E8101969E83E7
:100260008D838D819E8160E070E040E150E00E94CE
:100270003E04DC01CB018B8389819A816B810E94D2
:10028000CF018C838C81882309F46EC0CE01079640
:1002900020E1FC01322F11923A95E9F7CE01079641
:1002A00020E630E047E0F90100802F5F3F4FFC017E
:1002B0000082019641504423B1F78C81882F90E051
:1002C0009E01295F3F4F295F3F4FB90140E150E058
:1002D0000E946405CE0107960E944C0345C0CE01E2
:1002E000079620E1FC01322F11923A95E9F7CE01F1
:1002F000079628E630E043E0F90100802F5F3F4F8A
:10030000FC010082019641504423B1F787E890E058
:1003100060E070E040E150E00E943E04DC01CB016F
:100320009A83898389819A810E940202882F90E0B2
:100330009E01295F3F4F2D5F3F4FB90140E150E0E3
:100340000E946405CE0107960E944C030EC089E905
:1003500090E00E946B0386E890E00E944C0383EBE0
:1003600090E00E946B0301C000001092840020E224
:1003700086E890E0FC01322F11923A95E9F78AE085
:100380000E9422038F890E94220380E067960FB6A5
:10039000F894DEBF0FBECDBFDF91CF910895CF930C
:1003A000DF93CDB7DEB728970FB6F894DEBF0FBE48
:1003B000CDBF9F838E8368871A8219821C821B821D
:1003C0008E819F819A83898389819A819C838B8383
:1003D0008B819C812885FC0120838E819F810E94D6
:1003E00002028D8398858D81981711F08D8101C04F
:1003F00080E028960FB6F894DEBF0FBECDBFDF9128
:10040000CF910895CF93DF93CDB7DEB727970FB67F
:10041000F894DEBF0FBECDBF9F838E831A821982F0
:100420001C821B828E819F819A83898389819A8114
:100430009C838B838B819C81FC0180818D838D814A
:1004400027960FB6F894DEBF0FBECDBFDF91CF91D8
:1004500008951F920F920FB60F9211242F938F932E
:100460009F93EF93FF93CF93DF9300D000D0CDB74E
:10047000DEB78BE290E0FC0180818A838CE290E021
:10048000FC0180818B838A81887189838091E80057
:100490008F5F8F718C838091E9009C81981719F48C
:1004A00082E089830BC08C818093E8008C81882F47
:1004B00090E08A539F4F2B81FC0120838981809398
:1004C000EA002496DEBFCDBFDF91CF91FF91EF917F
:1004D0009F918F912F910F900FBE0F901F901895A5
:1004E0001F920F920FB60F9211242F933F938F9369
:1004F0009F93EF93FF93CF93DF930F92CDB7DEB728
:100500009091E6008091E7009817A1F08091E700B4
:100510008F5F8F71898389818093E7008CE290E0FF
:100520002981222F30E02A553F4FF9012081FC011B
:10053000208309C08AE290E02AE230E0F9012081BC
:100540002F7DFC0120830F90DF91CF91FF91EF91E0
:100550009F918F913F912F910F900FBE0F901F9001
:100560001895CF93DF9300D00F92CDB7DEB79B8362
:100570008A831092E6001092E7001092E800109231
:10058000E9008A819B81992354F48BE290E022E078
:10059000FC0120838A819B819F779B838A8380E4EF
:1005A00090E02A813B81232F3327FC01208389E2BD
:1005B00090E02A81FC0120838AE290E028E9FC0196
:1005C000208380E490E026E8FC012083198203C0A8
:1005D00089818F5F898389818436D0F30F900F9052
:1005E0000F90DF91CF910895CF93DF9300D0CDB7D7
:1005F000DEB79091E8008091E900981719F480E047
:1006000091E01BC08091E9008F5F8F7189838981A0
:100610008093E9008981882F90E08A539F4FFC01E5
:1006200080818A838091EA00882F90E0382F2227EA
:100630008A81882F90E0820F931F0F900F90DF9197
:10064000CF910895CF93DF9300D0CDB7DEB78A83E3
:100650008091E6008F5F8F71898300008091E700B1
:1006600099819817D9F38981882F90E08A559F4FF7
:100670002A81FC01208389818093E6008AE290E050
:100680002AE230E0F90120812062FC0120830F90F2
:100690000F90DF91CF910895CF93DF9300D0CDB726
:1006A000DEB79A8389830CC089819A81FC012081FD
:1006B00089819A8101969A838983822F0E942203DD
:1006C00089819A81FC018081882371F70F900F90B6
:1006D000DF91CF9108951F93CF93DF9300D000D087
:1006E0000F92CDB7DEB79D838C8303C0812F0E940C
:1006F00022038C819D819A8389838C819D810196BF
:100700009D838C8389819A81FC0114911B838B8149
:10071000182F112359F70F900F900F900F900F90F3
:10072000DF91CF911F910895CF93DF93CDB7DEB7BF
:100730008091E800882F90E09C01215E3F4F8091DE
:10074000E900882F90E0A901481B590BCA012FE14D
:1007500030E0B9010E941704DF91CF910895CF9343
:10076000DF93CDB7DEB78091E9008093E800DF9199
:10077000CF910895CF93DF93CDB7DEB764970FB6CF
:10078000F894DEBF0FBECDBF86E890E09A838983E0
:1007900028E0CE010D96FC01322F11923A95E9F72F
:1007A0001B8287E390E02FEFFC01208388E390E039
:1007B0002EEFFC01208383E390E00E94B102789445
:1007C0008CE690E00E944C038DE00E94220301C061
:1007D00000000E94F4029D838C838C819D81807037
:1007E00091700097A9F78C819D8180709870009717
:1007F00021F08FEB90E00E946B038C819D818070D3
:100800009470009721F082ED90E00E946B038C8140
:100810009D8180709270009721F087EE90E00E9499
:100820006B038C81882F90E00E949F00D1CF97FBB3
:10083000092E07260AD077FD04D00CD006D0002060
:100840001AF4709561957F4F0895F6F7909581950C
:100850009F4F0895AA1BBB1B51E107C0AA1FBB1FD6
:10086000A617B70710F0A61BB70B881F991F5A953C
:10087000A9F780959095BC01CD010895A4E0B0E062
:10088000E4E4F4E00C94DA052B017A0161157105BA
:1008900029F0DB018C9311969C931197E114F104DC
:1008A00039F09701225030402332310508F0FBC067
:1008B0006C0186010894C11CD11CF80130803601FE
:1008C000832D90E00E945C05009799F7FDE23F16AA
:1008D00061F4D80111963C90119792E0692E712C29
:1008E000600E711ECC24C3940BC0BBE23B1639F4DE
:1008F000F801318082E0682E712C600E711ECC24CC
:10090000E114F10421F0F0E1EF16F104F9F480E3D1
:10091000381691F4D3018C91883711F0883561F441
:10092000F301318082E090E0680E791E92E0C92ADE
:10093000B0E1EB2EF12C0AC0E114F10439F4A0E38C
:100940003A16D1F0AAE0EA2EF12C30C0BAE0EB164C
:10095000F10461F1E0E1EE16F10429F0F8E0EF16A0
:10096000F104B1F409C0FFEF8F2EFFEF9F2EFFEFD0
:10097000AF2EFFE0BF2E22C078E0E72EF12CEFEF84
:100980008E2EEFEF9E2EEFEFAE2EEFE1BE2E16C0B5
:100990009701442737FD4095542F6FEF7FEF8FEF7E
:1009A0009FEF0E94B70549015A0108C069E9862EE8
:1009B00069E9962E69E9A62E69E1B62E40E000E0CD
:1009C00010E09801C701AA2797FDA095BA2F898347
:1009D0009A83AB83BC8350EDD52ED30C99E09D1543
:1009E00070F4832D81548A3118F499ECD92E06C005
:1009F000832D81568A3168F589EAD82ED30C8D2D46
:100A000090E08E159F052CF54F3FF9F0801691066A
:100A1000A206B306B8F0C901B80129813A814B8119
:100A20005C810E9498058B019C018D2D90E0A0E0D7
:100A3000B0E0080F191F2A1F3B1F081719072A07C4
:100A40003B0710F44FEF01C041E0D3013D903D0161
:100A5000C2CF4114510489F0442339F0089461084D
:100A60007108F2017182608208C0C1FE06C0C30134
:100A70000297D20111969C938E93C0FE07C03095C9
:100A80002095109501951F4F2F4F3F4F47FF0EC0E8
:100A900082E290E09093EC008093EB000FEF1FEF69
:100AA0002FEF3FEF03C000E010E09801B801C9014B
:100AB0002496E1E10C94F605911127C0803219F0DB
:100AC00089508550D0F70895FB019F01E89442308A
:100AD000C4F04532B4F44A3029F497FB1EF49095E3
:100AE00081959F4F642F77270E942A04805D8A3367
:100AF0000CF0895D8193CB010097A1F716F45DE2BC
:100B000051931082C9010C9488059927882708956C
:100B1000DC01FC01672F71917723E1F7329704C064
:100B20007C916D9370836291AE17BF07C8F30895EF
:100B3000629FD001739FF001829FE00DF11D649FC1
:100B4000E00DF11D929FF00D839FF00D749FF00D4D
:100B5000659FF00D9927729FB00DE11DF91F639FEE
:100B6000B00DE11DF91FBD01CF0111240895A1E2CF
:100B70001A2EAA1BBB1BFD010DC0AA1FBB1FEE1F17
:100B8000FF1FA217B307E407F50720F0A21BB30B62
:100B9000E40BF50B661F771F881F991F1A9469F7DE
:100BA00060957095809590959B01AC01BD01CF013A
:100BB00008952F923F924F925F926F927F928F9201
:100BC0009F92AF92BF92CF92DF92EF92FF920F93DC
:100BD0001F93CF93DF93CDB7DEB7CA1BDB0B0FB6E6
:100BE000F894DEBF0FBECDBF09942A8839884888A3
:100BF0005F846E847D848C849B84AA84B984C88439
:100C0000DF80EE80FD800C811B81AA81B981CE0F2F
:100C1000D11D0FB6F894DEBF0FBECDBFED01089514
:040C2000F894FFCF76
:100C2400202D2D3E203078002030780041746D65F1
:100C340067613235363020696E697469616C697A2E
:040C440065640A00D9
:00000001FF
